:0300000002000EED
:0C000E00787FE4F6D8FD758120020055D3
:08010F00C10001090001080014
:10009A00758901758CFE758A0CD28CD2A9D2AF20D3
:1000AA00910F7F0A7E001200F02091052091FDB287
:0E00BA000030000575082580E675082680E1F7
:1000F000EF1FAA0670011E4A6014E4FDEDC394C808
:0E0100007480948050EA00000000000D80EE34
:01010E0022CE
:03000B000200C828
:1000C800C0E0C0D0758CFE758A0CE509D395085040
:1000D80004C2908002D290E50964287004F5098072
:0800E800020509D0D0D0E0327E
:10001A0002009AE493A3F8E493A34003F68001F262
:10002A0008DFF48029E493A3F85407240CC8C333E7
:10003A00C4540F4420C8834004F456800146F6DFB6
:10004A00E4800B010204081020408090010FE47E36
:10005A00019360BCA3FF543F30E509541FFEE493AB
:10006A00A360010ECF54C025E060A840B8E493A372
:10007A00FAE493A3F8E493A3C8C582C8CAC583CA9D
:10008A00F0A3C8C582C8CAC583CADFE9DEE780BE55
:0101170000E7
:00000001FF
