:030000000201A753
:0C01A700787FE4F6D8FD7581400201EE7F
:10037800C0F9A4B0999282F880908883C6A1868E2D
:0A038800FFBF0102040810204080AE
:10039200012100410000004100060002220000028B
:0303A20024000034
:0703A600C2A2C2A3C2A422FF
:1002E000E4FFEFC39408748094805012C2A4E540E8
:1002F0003392A2E54025E0F540D2A40F80E4E4FF6C
:10030000EFC39408748094805012C2A4E53F3392E6
:10031000A2E53F25E0F53FD2A40F80E4D2A3C2A21C
:04032000C2A3C2A40E
:0103240022B6
:10032500E52124F85002801D74072521F582E43467
:1003350000F583E090037893F53FE52190038A93D8
:0A034500F5401202E00521532107E4
:01034F00228B
:020233008D0834
:10023500E4FFEFC39508504DE4FEEEC394037480CC
:1002450094805037EE14600C1460102402701490E2
:100255000001800A12010CF52080089000021201AD
:1002650025F5207D80ED601055206002D2A0D2A03A
:10027500C2A0EDC313FD80ED0E80BF740329F9E420
:050285003AFA0F80AD04
:01028A002251
:10035000900000E0C39464748094805006C2A0E0D2
:1003600004F022C2AF7B007A0079277D08120233A5
:07037000D2AFE4900000F0A1
:010377002263
:10028B00900002E004F07006900001E004F0D390BF
:10029B000002E094E8900001E094034035E4F0A301
:1002AB00F0E527C4540F900007F0E527540FA3F097
:1002BB00A37410F0E528C4540FA3F0E528540FA342
:1002CB00F0A37410F0E529C4540FA3F0E529540FE3
:0502DB00A3F002032561
:10000300D3E5259450E5249400500201C6E4F52479
:10001300F525900006E014602F14604514605D140C
:10002300607414700201B22405600201C6900004DA
:10003300E004F0E4A3F0900003F0A3E0F460020115
:10004300C690000604F0807B900004E014F0E4A363
:10005300F0900003F0A3E0706A9000067402F08051
:1000630062E4900004F0A3E004F0E4900003F09055
:100073000005E0F4704DA37403F08047E49000049E
:10008300F0A3E014F0E4900003F0900005E0703377
:10009300A37404F0802DE4900004F0A3F090000317
:1000A300E004F0E0F4701C9000067405F08014E4A2
:1000B300900004F0A3F0900003E014F0E0700490CB
:1000C3000006F00525E52570020524AE22AF237C4A
:1000D300007D181201528C228D23900004E0FFAEA4
:1000E3002374272EF8A607A3E0FF74282EF8A6078B
:1000F300900003E0FF74292EF8A60774032523F567
:0901030023E43522F52202035029
:0503AD0012000380FBBB
:1001B3000203ADE493A3F8E493A34003F68001F2B2
:1001C30008DFF48029E493A3F85407240CC8C3334D
:1001D300C4540F4420C8834004F456800146F6DF1C
:1001E300E4800B0102040810204080900392E47E17
:1001F300019360BCA3FF543F30E509541FFEE49311
:10020300A360010ECF54C025E060A840B8E493A3D7
:10021300FAE493A3F8E493A3C8C582C8CAC583CA02
:10022300F0A3C8C582C8CAC583CADFE9DEE780BEBA
:0103A5000057
:10010C00BB010689828A83E0225002E722BBFE02F1
:09011C00E32289828A83E4932224
:10012500BB010CE58229F582E5833AF583E022508F
:1001350006E92582F8E622BBFE06E92582F8E222D9
:0D014500E58229F582E5833AF583E49322F3
:10015200BC000BBE0029EF8DF084FFADF022E4CC91
:10016200F875F008EF2FFFEE33FEEC33FCEE9DEC5A
:10017200984005FCEE9DFE0FD5F0E9E4CEFD22EDA0
:10018200F8F5F0EE8420D21CFEADF075F008EF2FEA
:10019200FFED33FD4007985006D5F0F222C398FDDB
:0501A2000FD5F0EA2278
:00000001FF
