:0C095B003132333435363738390D300B6B
:10082C008C000101010101010101010101010147DC
:0F083C00000C48FFFFFFFFFFFFFFFFFFFFFFFF65
:1002C200E54775F003A42448F8E625E0FFA2A4E47C
:1002D200334FFFE54775F003A42448F8A607E54726
:1002E20075F003A42449F8E625E0FFA2A6E4334F03
:1002F200FFE54775F003A42449F8A607E54775F022
:1003020003A4244AF8E625E0FFA2A2E4334FFFE566
:100312004775F003A4244AF8A607E4FFEFC3940349
:10032200748094805036E54775F003A424482FF872
:10033200E6540FFD7C00700EE54775F003A424001F
:100342002FF8E4F28013ED640F4C700DE54775F061
:1003520003A424002FF87401F20F80C0054753470D
:1003620003E54714600F1460111460132403701323
:10037200D2A3C2A522D2A5C2A022D2A0C2A122D2B9
:03038200A1C2A372
:010385002255
:100917007580FFC290D291D292AF80C292EF20E74A
:01092700F6D9
:0109280022AC
:10093B00AE07120917D290C2918E80D292C2922228
:10094B00AE07120917C290C2918E80D292C2922228
:10092900ED7004AC078004EF2440FCEC4480FF0226
:02093900094B68
:060880008B1A8A1B891C83
:100886008F1D120929AB1AAA1BA91C12000E603172
:10089600C3E51D940874809480400DE51D24F8FF7F
:1008A6007D01120929E4F51DAB1A051CE51CAA1BDE
:1008B6007002051B14F912000EFF12093B051D807C
:0108C600C46D
:0108C700220E
:100903007F3812094B7F0C12094B7F0612094B7F6C
:040913000102094B89
:1008ED002A2A2A2A2A2A2A0043542057494E002010
:0608FD00542057494E0093
:10084B00012F00013000014300043B0000000004B5
:10085B003F00000000042B00000001014600024491
:10086B000000023112078C0C010101010101010191
:04087B000101010175
:10043A00D2AF1209037F327E001206AFC2947BFF4D
:10044A007A0879EDE4FD7F04120880E4F508C3E533
:10045A00089402748094805016C2957F647E0012BC
:10046A0008CFD2957FF47E011208CF050880DF12EB
:10047A000730E5436401701AE5466052780BE26082
:10048A004DE4F5467BFF7A0879EDFD7F041208807A
:10049A00803CE543640270197543047F0112094BDD
:1004AA007BFF7A0879F5E4FD7F05120880C2948003
:1004BA001DE543640370177543047F0112094B7BE2
:1004CA00FF7A0879FCE4FD7F05120880C29330B1F7
:1004DA000875440F7545A080967544077545D08008
:0104EA008E83
:0708C800C295C2937F28FED8
:1008CF00EF1FAA0670011E4A6013E4FDEDC394FAF0
:0D08DF007480948050EA000000000D80EF4E
:0108EC0022E9
:0406AF00AB07AA06E5
:1006B3005389F0438902750C00750B10750A0E758A
:1006C3000900AE02AF03E4FCFDAB0CAA0BA90AA818
:1006D30009120039E47BE87A03F9F81200C48F0C9D
:1006E3008E0B8D0A8C09C3E4950CF50CE4950BF580
:1006F3000B7401950AF50AE49509F509E50C241E26
:10070300F50CE4350BF50BE4350AF50AE43509F588
:1007130009AF0CAE0BAD0AFC780812017D8F2F8553
:0C0723000C30852F8C85308AD2A9D28C36
:01072F0022A7
:0704EB007B007A00790EFC92
:0E04F2008B1A8A1B891C8F208E1F8D1E8C1D5D
:10050000E4F521F522E47B0AFAF9F8AF20AE1FAD3D
:100510001EAC1D1200C4AF03AE21052174232EF8BA
:10052000A607AF20AE1FAD1EAC1DE47B0AFAF9F89A
:100530001200C48F208E1F8D1E8C1DE4FFFEFDFC5B
:10054000AB20AA1FA91EA81DD312016C50B785218C
:1005500022AF211521EF3395E0FED3EF9400EE6436
:10056000809480401D74232521F8E62430FFAB1AC7
:10057000051CE51CAA1B7002051B14F9EF120027CD
:0E05800080CFAB1AAA1BA91CE4120027AF22E1
:01058E00224A
:10058F008F198E188D178C167F407E427D0F7C0041
:10059F00AB19AA18A917A816C31201564075E5433F
:1005AF007034FB7A007933AF3EAE3DAD3CAC3B12BD
:1005BF0004F2C295C293D2947FDC7E051208CFD28B
:1005CF0095D293D2947BFF7A0879EDE4FD7F0412E4
:1005DF00088075430122E54364017037AF42AE4195
:1005EF00AD40AC3FAB3EAA3DA93CA83BC312016C4A
:1005FF00700475430222E4F542F541F540F53F7F63
:10060F00F47E011208CF7BFF7A0879EDE4FD7F04B9
:04061F00120880221B
:020386008F0CDA
:10038800E54370537F0AFEFDFCAB3EAA3DA93CA89D
:100398003B120039A804A905AA06AB07E4FCFDFE38
:1003A800EB250CF53EEE3AF53DED39F53CEC38F52C
:1003B8003BAF3EAE3DAD3C1204EB8F0DC3740B95C5
:1003C8000DFF7B007A00790EE4FD120880AF3EAE87
:1003D8003DAD3CAC3B8057E543640170547F0AFE59
:1003E800FDFCAB42AA41A940A83F120039A804A9C4
:1003F80005AA06AB07E4FCFDFEEB250CF542EE3A38
:10040800F541ED39F540EC38F53FAF42AE41AD402E
:100418001204EB8F0DC3740B950DFF7B007A0079E6
:100428000EE4FD120880AF42AE41AD40AC3F12056C
:010438008F34
:0104390022A0
:1007AF008F0BE54370071208C8D295D293E50BC3A0
:1007BF009430400FE50BD394395008E50B24D0FF4C
:1007CF00020386E50B640D7053E543700AF53EF5A1
:1007DF003DF53CF53B8039E5436401700AF542F580
:1007EF0041F540F53F8029E5436404702FF543F54B
:1007FF003EF53DF53CF53BF542F541F540F53F75CE
:10080F002E01F52DF52CF52BF546753112753207A6
:0D081F007BFF7A0879EDFD7F04120880222E
:10073000E4F509C3E5099404748094805070E4F5ED
:100740000AC3E50A940374809480505EE50975F04D
:1007500003A42400250AF8E2FFE50975F003A424A8
:100760000C250AF8E2FE6F603DEE6020E50975F0A9
:1007700003A4245BF582E43409F583E582250AF5B8
:1007800082E43583F583E493FF1207AFE50975F042
:1007900003A42400250AF8E2FFE50975F003A42468
:0E07A0000C250AF8EFF2050A809705098085FE
:0107AE002228
:03000B000201905F
:10019000C0E0C0F0C083C082C0D075D000C000C035
:1001A00001C002C003C004C005C006C007852F8C73
:1001B00085308AE543640160030202A4780BE27093
:1001C00066AE44AF45AB07AA06F9F8AF2EAE2DAD2B
:1001D0002CAC2B1200C4AC00AD01AE02AF03E4FBAB
:1001E000FAF9F8C312016C703EE5462404FFE433CB
:1001F000FEC3EF9408EE64809480E5465007240423
:10020000FFE4FD800524FCFF7D01120929743325DC
:1002100046F8E6FF12093B0546C3E546940874809C
:1002200094804003754302AE31AF32AB07AA06E4B7
:10023000F9F8AF2EAE2DAD2CAC2B1200C4AC00AD36
:1002400001AE02AF03E4FBFAF9F8C312016C7026A9
:100250001208C8D295D293E53224BFFFE53134FFAE
:10026000FED3EF9400EE9400400C74BF2532F532BB
:1002700074FF3531F5317F087E4C7D017C00AB2E5B
:10028000AA2DA92CA82BC312016C4003754303E5CA
:100290002E2401F52EE4352DF52DE4352CF52CE436
:1002A000352BF52B1202C2D007D006D005D004D0D2
:1002B00003D002D001D000D0D0D082D083D0F0D0F3
:0202C000E0322A
:03000000020623D2
:0C062300787FE4F6D8FD75815302066A6A
:10000E00BB010689828A83E0225002E722BBFE02F0
:09001E00E32289828A83E4932223
:10002700BB010689828A83F0225002F722BBFE01B8
:02003700F322B2
:10003900E88FF0A4CC8BF0A42CFCE98EF0A42CFC66
:100049008AF0EDA42CFCEA8EF0A4CDA8F08BF0A4E4
:100059002DCC3825F0FDE98FF0A42CCD35F0FCEB43
:100069008EF0A4FEA9F0EB8FF0A4CFC5F02ECD3908
:0F007900FEE43CFCEAA42DCE35F0FDE43CFC2275
:1000880075F008758200EF2FFFEE33FECD33CDCC2F
:1000980033CCC58233C5829BED9AEC99E5829840B2
:1000A8000CF582EE9BFEED9AFDEC99FC0FD5F0D68F
:1000B800E4CEFBE4CDFAE4CCF9A88222B800C1B9B9
:1000C8000059BA002DEC8BF084CFCECDFCE5F0CBF7
:1000D800F97818EF2FFFEE33FEED33FDEC33FCEB30
:1000E80033FB10D703994004EB99FB0FD8E5E4F9EB
:1000F800FA227818EF2FFFEE33FEED33FDEC33FCD8
:10010800C933C910D7059BE99A4007EC9BFCE99ACB
:10011800F90FD8E0E4C9FAE4CCFB2275F010EF2F10
:10012800FFEE33FEED33FDCC33CCC833C810D70710
:100138009BEC9AE899400AED9BFDEC9AFCE899F84B
:0E0148000FD5F0DAE4CDFBE4CCFAE4C8F922DE
:10015600EB9FF5F0EA9E42F0E99D42F0EC6480C820
:0601660064809845F022C0
:10016C00EB9FF5F0EA9E42F0E99D42F0E89C45F0E9
:01017C002260
:10017D00E8600FECC313FCED13FDEE13FEEF13FF60
:03018D00D8F12284
:10062F0002043AE493A3F8E493A34003F68001F2A3
:10063F0008DFF48029E493A3F85407240CC8C333CC
:10064F00C4540F4420C8834004F456800146F6DF9B
:10065F00E4800B010204081020408090082CE47EF7
:10066F00019360BCA3FF543F30E509541FFEE49390
:10067F00A360010ECF54C025E060A840B8E493A357
:10068F00FAE493A3F8E493A3C8C582C8CAC583CA82
:10069F00F0A3C8C582C8CAC583CADFE9DEE780BE3A
:01087F000078
:00000001FF
