:03000000020436C1
:0C043600787FE4F6D8FD75812902047D72
:10066D004144430041444452533A307830303000D5
:10067D00524541443A003100300041444452533A0E
:06068D003078323030002D
:03073A00010C00AF
:1003210012077E120760758901758CEEE4F58AD299
:100331008CD2A9D2AF7D07FFFE120693E4FDFF7EAA
:10034100021206937BFF7A06796DE4FD7F0D12069A
:10035100457BFF7A067971E4FDFF1206457BFF7A42
:1003610006797D7D01E4FF120645E4FFFE1206DCFD
:100371007E007B007A0079081204C27B007A007942
:10038100087D017F061206457BFF3091067A0679CA
:100391008380047A0679857D017F0A1206457B00F8
:1003A1007A007908AF0EAE0D1204C27B007A007993
:1003B100087D017F0D120645050C7FF47E011206B2
:1003C100BE7BFF7A067987E4FDFF1206457BFF7A43
:1003D10006797D7D01E4FF1206457F007E0212064B
:1003E100DC7E007B007A0079081204C27B007A006F
:1003F10079087D017F061206457BFF3091067A065A
:10040100798380047A0679857D017F0A1206457B0E
:10041100007A007908AF0EAE0D1204C27B007A009B
:1004210079087D017F0D120645050C7FF47E0112CE
:0504310006BE020352AB
:03000B000205A447
:1005A400C0E0C0F0C083C082C0D075D000C000C01D
:1005B40001C002C003C004C005C006C007758CEEAC
:1005C400758A00D3E50C9409748094804003750CFB
:1005D40000AF0C7E001205F7D007D006D005D0047A
:1005E400D003D002D001D000D0D0D082D083D0F0BC
:0305F400D0E03222
:03002B0002053D8E
:10053D00C0E0C0F0C083C082C0D075D000C000C084
:0D054D0001C002C003C004C005C006C00705
:10055A0075BC00AFBDEFFEADBEEDFFAC06E4120107
:10056A00D9E4FBFA79FD784312002EE4FBFA79808C
:0F057A0078441201371202128E0D8F0E75BC8855
:10058900D007D006D005D004D003D002D001D000C6
:0B059900D0D0D082D083D0F0D0E03270
:0C077E00759D0175BC8875A204D2AD22E7
:10074D00D2B6C2B5E4F580D2B4E5805480FFC2B410
:02075D0070F535
:01075F002277
:10071200AE0712074DC2B6C2B51206B8D2B412065F
:04072200BAC2B42281
:10072600AE0712074DC2B6D2B51206B8D2B412063B
:04073600BAC2B4226D
:0F0760007F0C1207127F061207127F3802071252
:100645008B1F8A2089211206FAAB1FAA20A9211225
:10065500029360130521E5217002052014F91202A9
:0806650093FF12072680E22238
:1006FA00ED1460070470098F228005EF2440F5226B
:08070A00E5222480FF02071222
:0606B8008E807F017E0030
:1006BE00EF1FAA0670011E4A6013E4FDEDC394FA03
:0D06CE007480948050EA000000000D80EF61
:0106DB0022FC
:0A04C2008E1F8F208B218A228923D0
:1004CC00E4F529AF29EF3395E0FEC3EF9403EE6416
:1004DC008094805025AE1FAF207C007D0A1202BE96
:1004EC0074242529F8A605AE1FAF207C007D0A12C6
:1004FC0002BE8E1F8F20052980C91529AF29EF3325
:10050C0095E0C364809480401E74242FF8E6243058
:10051C00FFAB210523E523AA227002052214F9EF73
:10052C001202AC152980D5AB21AA22A923E4020220
:01053C00AC12
:0F076F00E4F5C7F5C5F5C675C380F5C4F5C2221C
:10000E00C28C8FC48EC375C70343C78075C5037575
:0C001E00C65A75C6A50012076FD28C22CE
:1006DC00C28C8FC48EC375C70343C78075C50175A3
:0D06EC00C65A75C6A500AFC212076FD28CAA
:0106F90022DE
:10069300AB07AA06C28C12000E8DC28BC48AC37527
:1006A300C70343C78075C50275C65A75C6A5001230
:0506B300076FD28C224C
:0F073D000A15C0F9A4B0999282F88090011400B7
:1005F70075A0FFE51414601314602B2402703ED21B
:10060700B2D2B1C2B0E4F514FC8011D2B2C2B1D2F9
:10061700B005147C007D0A1202BE7C007D0A12021E
:10062700BE74152D8012C2B2D2B1D2B0E4F514FC5B
:0D0637007D641202BE74152FF8E6F4F5A0E4
:010644002293
:10002E00EC4D6011E8497017ED33EC3304600DE4CC
:10003E00FCFFFEFD22E933E8330470F802027E1263
:10004E00024958046009E4CC248150062850090264
:10005E000288284003020285C0E0EB4A7044B98052
:10006E0006D0E0FB020274EF4E701CBD8008EBFF61
:10007E00EAFEE9FD80EBE98DF0A4FEE5F002011742
:10008E00E9CDF9EAFEEBFFEF89F0A4FCE5F0CE89AD
:10009E00F0A42EFFE435F0CD89F0A42DFEE435F06A
:1000AE008067EF4E7005BD80D780C3EF8BF0A4AC98
:1000BE00F0EE8BF0A42CFCE435F0F8EF8AF0A42CD3
:1000CE00E5F038FCE433CB8DF0A42CFCE5F03BF8E6
:1000DE00EE8AF0A42CFCE5F038F8E433CF89F0A4D6
:1000EE002CFCE5F038CF3400CE89F0A42FFFE5F0DC
:1000FE003EFEE433C98DF0A42EFEE5F039CD8AF034
:10010E00A42FFFE5F03EFEE43DFD33D0E0FB5007AB
:10011E000BBB000F020288EC2CFCEF33FFEE33FE1C
:06012E00ED33FD0202604A
:10013400020288EC5D046005E85904700302027E43
:10014400120249580460F6EC4860F2EC7004FDFEBB
:10015400FF22C860DB2481C85009C398600250069E
:100164000202859850CAF582E9294B4A7005AB8290
:1001740002027475F0007C1A7880C3EF9BEE9AED4E
:1001840099400DC3EF9BFFEE9AFEED99FDE842F016
:10019400DC23ACF0D0E0FFD0E0FED0E0FDAB822069
:1001A400E7101BEB60BAEC2CFCEF33FFEE33FEEDF3
:1001B40033FD020260E803F830E705C0F075F00093
:1001C400EF2FFFEE33FEED33FD40B830E7C280AAD7
:1001D40075F020800E75F010800575F0087D007EA6
:1001E400007F003392D530D503120313EC33401053
:1001F400EF33FFEE33FEED33FDEC33FCD5F0ED22AF
:0E020400E5F0247EA2D513CC92E7CDCEFF22EA
:10021200EDD2E7CD33EC3392D524814006E4FFFEE4
:10022200FDFC22FCE4CFCECDCC24E0501174FF8043
:10023200EDC3CC13CCCD13CDCE13CECF13CF0470E0
:07024200F030D5DE020313CA
:10024900E9D2E7C933E833F892D5EDD2E7CD33ECFB
:0702590033FC5002B2D52274
:10026000EC30E7100FBF000C0EBE00080DBD0004FF
:100270000BEB6014A2D5EB13FCED92E7FD2274FFAB
:10028000FCFDFEFF22E480F8A2D574FF13FC7D8004
:03029000E480EF18
:10044200020321E493A3F8E493A34003F68001F2AC
:1004520008DFF48029E493A3F85407240CC8C333BB
:10046200C4540F4420C8834004F456800146F6DF8A
:10047200E4800B010204081020408090073AE47ED9
:10048200019360BCA3FF543F30E509541FFEE4937F
:10049200A360010ECF54C025E060A840B8E493A346
:1004A200FAE493A3F8E493A3C8C582C8CAC583CA71
:1004B200F0A3C8C582C8CAC583CADFE9DEE780BE29
:01074C0000AC
:10029300BB010689828A83E0225002E722BBFE0269
:0902A300E32289828A83E493229C
:1002AC00BB010689828A83F0225002F722BBFE0131
:0202BC00F3222B
:1002BE00BC000BBE0029EF8DF084FFADF022E4CC24
:1002CE00F875F008EF2FFFEE33FEEC33FCEE9DECED
:1002DE00984005FCEE9DFE0FD5F0E9E4CEFD22ED33
:1002EE00F8F5F0EE8420D21CFEADF075F008EF2F7D
:1002FE00FFED33FD4007985006D5F0F222C398FD6E
:05030E000FD5F0EA220A
:0E031300C3E49FFFE49EFEE49DFDE49CFC22FB
:00000001FF
