:03000000020457A0
:0C045700787FE4F6D8FD75813A02049E1F
:1006FD00013800013A00013201013900013700C112
:0A070D00000433FFFFFFFF0131007D
:1004E300E4F522F523F5247528FFF529F52AF525EA
:1004F30075265FF527F5CAF5C9758911758C0B75D6
:100503008ADCF58DF58BD28CD2A9D2AF120258E5D5
:10051300216420603BAF36AE35AD34AC33A921A89E
:1005230001120232EF5401FFE4FEFDEF782B7C0051
:1005330060087B007A007925800A7D007B007A00C1
:1005430079227E007F031200DE120568052180BF39
:10055300E4F521C2CDE5326404600512071880ACCE
:0505630012072580A72E
:03000B0002064C9E
:10064C00C0E0C0F0C083C082C0D075D000C000C074
:0D065C0001C002C003C004C005C006C007F5
:10066900758C0B758ADCC3E53194147480948040D1
:10067900197531001206E2D3EF94A6EE6480948EC8
:1006890040057538018003753800E538653A60051D
:07069900B20085383A05317B
:1006A000D007D006D005D004D003D002D001D000AE
:0B06B000D0D0D082D083D0F0D0E03258
:10025800200003020434E53264017032AF36AE3553
:10026800AD34AC3378011202328F368E358D348C32
:1002780033E47F01FEFDFCAB36AA35A934A833C3AD
:100288001202216003020446753202020446E53276
:1002980064027058AF36AE35AD34AC337801120213
:1002A80045C004C005C006C007E4FFFEFDE53354A1
:1002B80080FC7809120232D003D002D001D000EFBE
:1002C8004BF536EE4AF535ED49F534EC48F533E4AF
:1002D800FFFEFD7C80AB36AA35A934A833C31202D1
:1002E800216003020446753203020446E5326403C2
:1002F8007058AF36AE35AD34AC337801120232C027
:1003080004C005C006C007E5365401FFE4FEFDFC45
:100318007809120245D003D002D001D000EF4BF586
:1003280036EE4AF535ED49F534EC48F533E47F010E
:10033800FEFDFCAB36AA35A934A833C312022160EE
:1003480003020446753204020446E5326404705818
:10035800E537FD7C007F027E001205DCA804A905B4
:10036800AA06AB07E4FFFEFD7C8012018FA804A952
:1003780005AA06C3E5369FF536E5359AF535E53421
:1003880099F534E53398F5330537C3741F9539B5B6
:100398003705E4F5370539E539641F60030204467B
:1003A800753205F539020446E5326405702FAF361B
:1003B800AE35AD34AC3378011202458F368E358DAB
:1003C800348C33E4FBFAF97880C3120221706F751C
:1003D8003206F536F535F5347533C08061E532649B
:1003E80006705BAF36AE35AD34AC337801120232ED
:1003F8008F368E358D348C33E42536F536E4353535
:10040800F535E43534F534E5333480F533E536FF36
:10041800E535FEE534FDE533FC74FFFBFAF9F8C376
:100428001202217019753201C200801274FFF5366C
:10043800F535F534F533753201E4F539F537E53638
:0F044800F536E535F535E534F534E533F5332292
:0805DC008E2B8F2C8D828C8385
:1005E400EE3395E08F308E2FF52EF52DE582458381
:1005F40070067F01FEFDFC22E58264014583700BD9
:10060400AE2BAF2CEE3395E0FDFC22D3E5829401B2
:10061400E583648094804027AB30AA2FA92EA82DAF
:10062400AE2BAF2CEE3395E0FDFC1201048F308E1F
:100634002F8D2E8C2DE582158270D0158380CCAF42
:0706440030AE2FAD2EAC2DEE
:01064B00228C
:0C0718007F027E867D98DDFEDEFCDFFAAD
:0107240022B2
:0A07250000007F4E7EE9DEFEDFFCDF
:01072F0022A7
:1006E20020CCFD30CCFDD28E20CCFDC28EAF8DEF62
:0A06F200FEAD8BEDFFE4F58DF58BF6
:0106FC0022DB
:1006BB00EF64017015D2CD000000000000000000B7
:1006CB0000000000000000008002D2CD00000000FE
:0706DB0000000000C2CD2267
:10056800E4FEC28CEE64086017A806E52B0880023A
:10057800C313D8FC5401FF74082EF8A6070E80E4B4
:10058800EE6410601AEE24F8FFF8E52C088002C328
:1005980013D8FC5401FF74082EF8A6070E80E1EE6C
:1005A8006418601AEE24F0FFF8E52D088002C313E2
:1005B800D8FC5401FF74082EF8A6070E80E1E4FE6B
:1005C800EE6418600C74082EF8E6FF1206BB0E8065
:0305D800EFD28CD3
:0105DB0022FD
:100463000204E3E493A3F8E493A34003F68001F2C8
:1004730008DFF48029E493A3F85407240CC8C3339A
:10048300C4540F4420C8834004F456800146F6DF69
:10049300E4800B01020408102040809006FDE47EF6
:1004A300019360BCA3FF543F30E509541FFEE4935E
:1004B300A360010ECF54C025E060A840B8E493A325
:1004C300FAE493A3F8E493A3C8C582C8CAC583CA50
:1004D300F0A3C8C582C8CAC583CADFE9DEE780BE08
:0107170000E1
:10000E00E709F608DFFA8046E709F208DFFA803ED4
:10001E0088828C83E709F0A3DFFA8032E309F608C1
:10002E00DFFA8078E309F208DFFA807088828C8329
:10003E00E309F0A3DFFA806489828A83E0A3F608DD
:10004E00DFFA805889828A83E0A3F208DFFA804CB7
:10005E0080D280FA80C680D4806980F2803380108E
:10006E0080A680EA809A80A880DA80E280CA8033F7
:10007E0089828A83ECFAE493A3C8C582C8CCC5836F
:10008E00CCF0A3C8C582C8CCC583CCDFE9DEE7803F
:10009E000D89828A83E493A3F608DFF9ECFAA9F0BE
:1000AE00EDFB2289828A83ECFAE0A3C8C582C8CC14
:1000BE00C583CCF0A3C8C582C8CCC583CCDFEADE2D
:1000CE00E880DB89828A83E493A3F208DFF980CC8F
:1000DE0088F0EF60010E4E60C388F0ED2402B40488
:1000EE000050B9F582EB2402B4040050AF2323452F
:0600FE00822390005E73F6
:10010400E88FF0A4CC8BF0A42CFCE98EF0A42CFC9A
:100114008AF0EDA42CFCEA8EF0A4CDA8F08BF0A418
:100124002DCC3825F0FDE98FF0A42CCD35F0FCEB77
:100134008EF0A4FEA9F0EB8FF0A4CFC5F02ECD393C
:0F014400FEE43CFCEAA42DCE35F0FDE43CFC22A9
:1001530075F008758200EF2FFFEE33FECD33CDCC63
:1001630033CCC58233C5829BED9AEC99E5829840E6
:100173000CF582EE9BFEED9AFDEC99FC0FD5F0D6C3
:10018300E4CEFBE4CDFAE4CCF9A88222B800C1B9ED
:100193000059BA002DEC8BF084CFCECDFCE5F0CB2B
:1001A300F97818EF2FFFEE33FEED33FDEC33FCEB64
:1001B30033FB10D703994004EB99FB0FD8E5E4F91F
:1001C300FA227818EF2FFFEE33FEED33FDEC33FC0C
:1001D300C933C910D7059BE99A4007EC9BFCE99A00
:1001E300F90FD8E0E4C9FAE4CCFB2275F010EF2F45
:1001F300FFEE33FEED33FDCC33CCC833C810D70745
:100203009BEC9AE899400AED9BFDEC9AFCE899F87F
:0E0213000FD5F0DAE4CDFBE4CCFAE4C8F92212
:10022100EB9FF5F0EA9E42F0E99D42F0E89C45F033
:0102310022AA
:10023200E8600FECC313FCED13FDEE13FEEF13FFAA
:03024200D8F122CE
:10024500E8600FEFC333FFEE33FEED33FDEC33FC17
:03025500D8F122BB
:00000001FF
