:030000000203A157
:0C03A100787FE4F6D8FD7581200203E8A7
:1004ED00010F01C100021000000108000109000107
:0804FD000A00040BFFFFFFFFE2
:10050600758911758CD8758AF0D28CD2A9D2AF8034
:01051600FEE6
:08042D008E128F138D828C8367
:10043500EE3395E08F178E16F515F514E582458395
:1004450070067F01FEFDFC22E58264014583700B89
:10045500AE12AF13EE3395E0FDFC22D3E582940195
:10046500E583648094804027AB17AA16A915A814C4
:10047500AE12AF13EE3395E0FDFC12024D8F178ED1
:10048500168D158C14E582158270D0158380CCAF3E
:0704950017AE16AD15AC1403
:01049C00223D
:08049D008F158E148D138C12D3
:1004A500C2A1C2A2E4FBEBFF3395E0FEC3EF9420AB
:1004B500EE64809480502AE5155401FFEF24FF92E5
:1004C500A00000D2A10000C2A1AF15AE14AD13ACBF
:1004D50012780112037B8F158E148D138C120B80ED
:0704E500C5D2A20000C2A273
:0104EC0022ED
:03000B0002000EE2
:10000E00C0E0C0F0C083C082C0D075D000C000C0B8
:0D001E0001C002C003C004C005C006C00739
:10002B00758CD8758AF0AF0EAE0DAD0CAC0B1204FF
:10003B009DE508540364036003020230E50F64017D
:10004B007034AF0EAE0DAD0CAC0B780112037B8F81
:10005B000E8E0D8D0C8C0BE47F01FEFDFCAB0EAAFE
:10006B000DA90CA80BC312036A600302021DC291F7
:10007B00750F0202021DE50F64027058AF0EAE0D34
:10008B00AD0CAC0B780112038EC004C005C006C0CA
:10009B0007E4FFFEFDE50B5480FC780912037BD0CF
:1000AB0003D002D001D000EF4BF50EEE4AF50DED6B
:1000BB0049F50CEC48F50BE4FFFEFD7C80AB0EAA7A
:1000CB000DA90CA80BC312036A600302021D750F66
:1000DB000302021DE50F64037058AF0EAE0DAD0C9D
:1000EB00AC0B780112037BC004C005C006C007E54A
:1000FB000E5401FFE4FEFDFC780912038ED003D0F1
:10010B0002D001D000EF4BF50EEE4AF50DED49F59F
:10011B000CEC48F50BE47F01FEFDFCAB0EAA0DA920
:10012B000CA80BC312036A600302021D750F0402B5
:10013B00021DE50F64047058E50AFD7C007F027E0A
:10014B000012042DA804A905AA06AB07E4FFFEFDC7
:10015B007C801202D8A804A905AA06C3E50E9FF558
:10016B000EE50D9AF50DE50C99F50CE50B98F50BD5
:10017B00050AC3741F9509B50A05750A000509E53B
:10018B0009641F600302021D750F05F50902021DAC
:10019B00E50F6405702FAF0EAE0DAD0CAC0B7801F7
:1001AB0012038E8F0E8E0D8D0C8C0BE4FBFAF978EF
:1001BB0080C312036A705B750F06F50EF50DF50C17
:1001CB00750BC0804DE50F64067047AF0EAE0DADDD
:1001DB000CAC0B780112037B8F0E8E0D8D0C8C0BE0
:1001EB00E4250EF50EE4350DF50DE4350CF50CE5B7
:1001FB000B3480F50BE50EFFE50DFEE50CFDE50B75
:10020B00FC74FFFBFAF9F8C312036A7005750F0152
:10021B00C200E50EF50EE50DF50DE50CF50CE50B45
:07022B00F50B750800050842
:10023200D007D006D005D004D003D002D001D00020
:0B024200D0D0D082D083D0F0D0E032CA
:1003AD00020506E493A3F8E493A34003F68001F25B
:1003BD0008DFF48029E493A3F85407240CC8C33351
:1003CD00C4540F4420C8834004F456800146F6DF20
:1003DD00E4800B01020408102040809004EDE47EBF
:1003ED00019360BCA3FF543F30E509541FFEE49315
:1003FD00A360010ECF54C025E060A840B8E493A3DC
:10040D00FAE493A3F8E493A3C8C582C8CAC583CA06
:10041D00F0A3C8C582C8CAC583CADFE9DEE780BEBE
:0105050000F5
:10024D00E88FF0A4CC8BF0A42CFCE98EF0A42CFC50
:10025D008AF0EDA42CFCEA8EF0A4CDA8F08BF0A4CE
:10026D002DCC3825F0FDE98FF0A42CCD35F0FCEB2D
:10027D008EF0A4FEA9F0EB8FF0A4CFC5F02ECD39F2
:0F028D00FEE43CFCEAA42DCE35F0FDE43CFC225F
:10029C0075F008758200EF2FFFEE33FECD33CDCC19
:1002AC0033CCC58233C5829BED9AEC99E58298409C
:1002BC000CF582EE9BFEED9AFDEC99FC0FD5F0D679
:1002CC00E4CEFBE4CDFAE4CCF9A88222B800C1B9A3
:1002DC000059BA002DEC8BF084CFCECDFCE5F0CBE1
:1002EC00F97818EF2FFFEE33FEED33FDEC33FCEB1A
:1002FC0033FB10D703994004EB99FB0FD8E5E4F9D5
:10030C00FA227818EF2FFFEE33FEED33FDEC33FCC1
:10031C00C933C910D7059BE99A4007EC9BFCE99AB5
:10032C00F90FD8E0E4C9FAE4CCFB2275F010EF2FFA
:10033C00FFEE33FEED33FDCC33CCC833C810D707FA
:10034C009BEC9AE899400AED9BFDEC9AFCE899F835
:0E035C000FD5F0DAE4CDFBE4CCFAE4C8F922C8
:10036A00EB9FF5F0EA9E42F0E99D42F0E89C45F0E9
:01037A002260
:10037B00E8600FECC313FCED13FDEE13FEEF13FF60
:03038B00D8F12284
:10038E00E8600FEFC333FFEE33FEED33FDEC33FCCD
:03039E00D8F12271
:00000001FF
